{
	"data": {
		"bytecode": {
			"linkReferences": {},
			"object": "6080604052348015600e575f5ffd5b506102b78061001c5f395ff3fe60806040526004361061003e575f3560e01c8063505fb46c1461004257806365ac43411461007e578063771602f7146100a8578063cd53e455146100e4575b5f5ffd5b34801561004d575f5ffd5b506100686004803603810190610063919061016b565b6100ee565b60405161007591906101ca565b60405180910390f35b348015610089575f5ffd5b5061009261010f565b60405161009f91906101ca565b60405180910390f35b3480156100b3575f5ffd5b506100ce60048036038101906100c991906101e3565b610117565b6040516100db91906101ca565b60405180910390f35b6100ec61012c565b005b5f8183856100fc919061024e565b610106919061024e565b90509392505050565b5f5f54905090565b5f8183610124919061024e565b905092915050565b345f81905550565b5f5ffd5b5f819050919050565b61014a81610138565b8114610154575f5ffd5b50565b5f8135905061016581610141565b92915050565b5f5f5f6060848603121561018257610181610134565b5b5f61018f86828701610157565b93505060206101a086828701610157565b92505060406101b186828701610157565b9150509250925092565b6101c481610138565b82525050565b5f6020820190506101dd5f8301846101bb565b92915050565b5f5f604083850312156101f9576101f8610134565b5b5f61020685828601610157565b925050602061021785828601610157565b9150509250929050565b7f4e487b71000000000000000000000000000000000000000000000000000000005f52601160045260245ffd5b5f61025882610138565b915061026383610138565b925082820190508082111561027b5761027a610221565b5b9291505056fea2646970667358221220e7c2a8672a8a2ceb7e05dbf19516d920f345699f939489dcfcc679e8680d062164736f6c634300081e0033",
			"opcodes": "PUSH1 0x80 PUSH1 0x40 MSTORE CALLVALUE DUP1 ISZERO PUSH1 0xE JUMPI PUSH0 PUSH0 REVERT JUMPDEST POP PUSH2 0x2B7 DUP1 PUSH2 0x1C PUSH0 CODECOPY PUSH0 RETURN INVALID PUSH1 0x80 PUSH1 0x40 MSTORE PUSH1 0x4 CALLDATASIZE LT PUSH2 0x3E JUMPI PUSH0 CALLDATALOAD PUSH1 0xE0 SHR DUP1 PUSH4 0x505FB46C EQ PUSH2 0x42 JUMPI DUP1 PUSH4 0x65AC4341 EQ PUSH2 0x7E JUMPI DUP1 PUSH4 0x771602F7 EQ PUSH2 0xA8 JUMPI DUP1 PUSH4 0xCD53E455 EQ PUSH2 0xE4 JUMPI JUMPDEST PUSH0 PUSH0 REVERT JUMPDEST CALLVALUE DUP1 ISZERO PUSH2 0x4D JUMPI PUSH0 PUSH0 REVERT JUMPDEST POP PUSH2 0x68 PUSH1 0x4 DUP1 CALLDATASIZE SUB DUP2 ADD SWAP1 PUSH2 0x63 SWAP2 SWAP1 PUSH2 0x16B JUMP JUMPDEST PUSH2 0xEE JUMP JUMPDEST PUSH1 0x40 MLOAD PUSH2 0x75 SWAP2 SWAP1 PUSH2 0x1CA JUMP JUMPDEST PUSH1 0x40 MLOAD DUP1 SWAP2 SUB SWAP1 RETURN JUMPDEST CALLVALUE DUP1 ISZERO PUSH2 0x89 JUMPI PUSH0 PUSH0 REVERT JUMPDEST POP PUSH2 0x92 PUSH2 0x10F JUMP JUMPDEST PUSH1 0x40 MLOAD PUSH2 0x9F SWAP2 SWAP1 PUSH2 0x1CA JUMP JUMPDEST PUSH1 0x40 MLOAD DUP1 SWAP2 SUB SWAP1 RETURN JUMPDEST CALLVALUE DUP1 ISZERO PUSH2 0xB3 JUMPI PUSH0 PUSH0 REVERT JUMPDEST POP PUSH2 0xCE PUSH1 0x4 DUP1 CALLDATASIZE SUB DUP2 ADD SWAP1 PUSH2 0xC9 SWAP2 SWAP1 PUSH2 0x1E3 JUMP JUMPDEST PUSH2 0x117 JUMP JUMPDEST PUSH1 0x40 MLOAD PUSH2 0xDB SWAP2 SWAP1 PUSH2 0x1CA JUMP JUMPDEST PUSH1 0x40 MLOAD DUP1 SWAP2 SUB SWAP1 RETURN JUMPDEST PUSH2 0xEC PUSH2 0x12C JUMP JUMPDEST STOP JUMPDEST PUSH0 DUP2 DUP4 DUP6 PUSH2 0xFC SWAP2 SWAP1 PUSH2 0x24E JUMP JUMPDEST PUSH2 0x106 SWAP2 SWAP1 PUSH2 0x24E JUMP JUMPDEST SWAP1 POP SWAP4 SWAP3 POP POP POP JUMP JUMPDEST PUSH0 PUSH0 SLOAD SWAP1 POP SWAP1 JUMP JUMPDEST PUSH0 DUP2 DUP4 PUSH2 0x124 SWAP2 SWAP1 PUSH2 0x24E JUMP JUMPDEST SWAP1 POP SWAP3 SWAP2 POP POP JUMP JUMPDEST CALLVALUE PUSH0 DUP2 SWAP1 SSTORE POP JUMP JUMPDEST PUSH0 PUSH0 REVERT JUMPDEST PUSH0 DUP2 SWAP1 POP SWAP2 SWAP1 POP JUMP JUMPDEST PUSH2 0x14A DUP2 PUSH2 0x138 JUMP JUMPDEST DUP2 EQ PUSH2 0x154 JUMPI PUSH0 PUSH0 REVERT JUMPDEST POP JUMP JUMPDEST PUSH0 DUP2 CALLDATALOAD SWAP1 POP PUSH2 0x165 DUP2 PUSH2 0x141 JUMP JUMPDEST SWAP3 SWAP2 POP POP JUMP JUMPDEST PUSH0 PUSH0 PUSH0 PUSH1 0x60 DUP5 DUP7 SUB SLT ISZERO PUSH2 0x182 JUMPI PUSH2 0x181 PUSH2 0x134 JUMP JUMPDEST JUMPDEST PUSH0 PUSH2 0x18F DUP7 DUP3 DUP8 ADD PUSH2 0x157 JUMP JUMPDEST SWAP4 POP POP PUSH1 0x20 PUSH2 0x1A0 DUP7 DUP3 DUP8 ADD PUSH2 0x157 JUMP JUMPDEST SWAP3 POP POP PUSH1 0x40 PUSH2 0x1B1 DUP7 DUP3 DUP8 ADD PUSH2 0x157 JUMP JUMPDEST SWAP2 POP POP SWAP3 POP SWAP3 POP SWAP3 JUMP JUMPDEST PUSH2 0x1C4 DUP2 PUSH2 0x138 JUMP JUMPDEST DUP3 MSTORE POP POP JUMP JUMPDEST PUSH0 PUSH1 0x20 DUP3 ADD SWAP1 POP PUSH2 0x1DD PUSH0 DUP4 ADD DUP5 PUSH2 0x1BB JUMP JUMPDEST SWAP3 SWAP2 POP POP JUMP JUMPDEST PUSH0 PUSH0 PUSH1 0x40 DUP4 DUP6 SUB SLT ISZERO PUSH2 0x1F9 JUMPI PUSH2 0x1F8 PUSH2 0x134 JUMP JUMPDEST JUMPDEST PUSH0 PUSH2 0x206 DUP6 DUP3 DUP7 ADD PUSH2 0x157 JUMP JUMPDEST SWAP3 POP POP PUSH1 0x20 PUSH2 0x217 DUP6 DUP3 DUP7 ADD PUSH2 0x157 JUMP JUMPDEST SWAP2 POP POP SWAP3 POP SWAP3 SWAP1 POP JUMP JUMPDEST PUSH32 0x4E487B7100000000000000000000000000000000000000000000000000000000 PUSH0 MSTORE PUSH1 0x11 PUSH1 0x4 MSTORE PUSH1 0x24 PUSH0 REVERT JUMPDEST PUSH0 PUSH2 0x258 DUP3 PUSH2 0x138 JUMP JUMPDEST SWAP2 POP PUSH2 0x263 DUP4 PUSH2 0x138 JUMP JUMPDEST SWAP3 POP DUP3 DUP3 ADD SWAP1 POP DUP1 DUP3 GT ISZERO PUSH2 0x27B JUMPI PUSH2 0x27A PUSH2 0x221 JUMP JUMPDEST JUMPDEST SWAP3 SWAP2 POP POP JUMP INVALID LOG2 PUSH5 0x6970667358 0x22 SLT KECCAK256 SWAPN 0xC2 0xA8 PUSH8 0x2A8A2CEB7E05DBF1 SWAP6 AND 0xD9 KECCAK256 RETURN GASLIMIT PUSH10 0x9F939489DCFCC679E868 0xD MOD 0x21 PUSH5 0x736F6C6343 STOP ADDMOD 0x1E STOP CALLER "
		},
		"gasEstimates": {
			"creation": {
				"codeDepositCost": "139000",
				"executionCost": "181",
				"totalCost": "139181"
			},
			"external": {
				"add(uint256,uint256)": "infinite",
				"add(uint256,uint256,uint256)": "infinite",
				"getTotalAmount()": "2431",
				"receivedEther()": "22275"
			}
		},
		"methodIdentifiers": {
			"add(uint256,uint256)": "771602f7",
			"add(uint256,uint256,uint256)": "505fb46c",
			"getTotalAmount()": "65ac4341",
			"receivedEther()": "cd53e455"
		}
	},
	"abi": [
		{
			"inputs": [
				{
					"internalType": "uint256",
					"name": "a",
					"type": "uint256"
				},
				{
					"internalType": "uint256",
					"name": "b",
					"type": "uint256"
				},
				{
					"internalType": "uint256",
					"name": "c",
					"type": "uint256"
				}
			],
			"name": "add",
			"outputs": [
				{
					"internalType": "uint256",
					"name": "result",
					"type": "uint256"
				}
			],
			"stateMutability": "pure",
			"type": "function"
		},
		{
			"inputs": [
				{
					"internalType": "uint256",
					"name": "a",
					"type": "uint256"
				},
				{
					"internalType": "uint256",
					"name": "b",
					"type": "uint256"
				}
			],
			"name": "add",
			"outputs": [
				{
					"internalType": "uint256",
					"name": "result",
					"type": "uint256"
				}
			],
			"stateMutability": "pure",
			"type": "function"
		},
		{
			"inputs": [],
			"name": "getTotalAmount",
			"outputs": [
				{
					"internalType": "uint256",
					"name": "",
					"type": "uint256"
				}
			],
			"stateMutability": "view",
			"type": "function"
		},
		{
			"inputs": [],
			"name": "receivedEther",
			"outputs": [],
			"stateMutability": "payable",
			"type": "function"
		}
	]
}